{
  "_format": "hh-sol-artifact-1",
  "contractName": "SoulboundSkillToken",
  "contractAddress": "0x70a42e32b150Eab33dF5B89BbaBfcB3DeAdb9d24",
  "network": "bscTestnet",
  "chainId": 97,
  "sourceName": "contracts/SoulboundSkillToken.sol",
  "abi": [
    {
      "inputs": [
        {
          "internalType": "string",
          "name": "name",
          "type": "string"
        },
        {
          "internalType": "string",
          "name": "symbol",
          "type": "string"
        }
      ],
      "stateMutability": "nonpayable",
      "type": "constructor"
    },
    {
      "anonymous": false,
      "inputs": [
        {
          "indexed": true,
          "internalType": "address",
          "name": "owner",
          "type": "address"
        },
        {
          "indexed": true,
          "internalType": "address",
          "name": "approved",
          "type": "address"
        },
        {
          "indexed": true,
          "internalType": "uint256",
          "name": "tokenId",
          "type": "uint256"
        }
      ],
      "name": "Approval",
      "type": "event"
    },
    {
      "anonymous": false,
      "inputs": [
        {
          "indexed": true,
          "internalType": "address",
          "name": "owner",
          "type": "address"
        },
        {
          "indexed": true,
          "internalType": "address",
          "name": "operator",
          "type": "address"
        },
        {
          "indexed": false,
          "internalType": "bool",
          "name": "approved",
          "type": "bool"
        }
      ],
      "name": "ApprovalForAll",
      "type": "event"
    },
    {
      "anonymous": false,
      "inputs": [
        {
          "indexed": true,
          "internalType": "address",
          "name": "recipient",
          "type": "address"
        },
        {
          "indexed": true,
          "internalType": "uint256",
          "name": "tokenId",
          "type": "uint256"
        },
        {
          "indexed": false,
          "internalType": "string",
          "name": "skillName",
          "type": "string"
        },
        {
          "indexed": false,
          "internalType": "string",
          "name": "level",
          "type": "string"
        },
        {
          "indexed": false,
          "internalType": "uint256",
          "name": "score",
          "type": "uint256"
        }
      ],
      "name": "BadgeIssued",
      "type": "event"
    },
    {
      "anonymous": false,
      "inputs": [
        {
          "indexed": false,
          "internalType": "uint256",
          "name": "_fromTokenId",
          "type": "uint256"
        },
        {
          "indexed": false,
          "internalType": "uint256",
          "name": "_toTokenId",
          "type": "uint256"
        }
      ],
      "name": "BatchMetadataUpdate",
      "type": "event"
    },
    {
      "anonymous": false,
      "inputs": [
        {
          "indexed": true,
          "internalType": "address",
          "name": "issuer",
          "type": "address"
        }
      ],
      "name": "IssuerAuthorized",
      "type": "event"
    },
    {
      "anonymous": false,
      "inputs": [
        {
          "indexed": true,
          "internalType": "address",
          "name": "issuer",
          "type": "address"
        }
      ],
      "name": "IssuerRevoked",
      "type": "event"
    },
    {
      "anonymous": false,
      "inputs": [
        {
          "indexed": false,
          "internalType": "uint256",
          "name": "_tokenId",
          "type": "uint256"
        }
      ],
      "name": "MetadataUpdate",
      "type": "event"
    },
    {
      "anonymous": false,
      "inputs": [
        {
          "indexed": true,
          "internalType": "address",
          "name": "previousOwner",
          "type": "address"
        },
        {
          "indexed": true,
          "internalType": "address",
          "name": "newOwner",
          "type": "address"
        }
      ],
      "name": "OwnershipTransferred",
      "type": "event"
    },
    {
      "anonymous": false,
      "inputs": [
        {
          "indexed": true,
          "internalType": "address",
          "name": "from",
          "type": "address"
        },
        {
          "indexed": true,
          "internalType": "address",
          "name": "to",
          "type": "address"
        },
        {
          "indexed": true,
          "internalType": "uint256",
          "name": "tokenId",
          "type": "uint256"
        }
      ],
      "name": "Transfer",
      "type": "event"
    },
    {
      "inputs": [
        {
          "internalType": "address",
          "name": "to",
          "type": "address"
        },
        {
          "internalType": "uint256",
          "name": "tokenId",
          "type": "uint256"
        }
      ],
      "name": "approve",
      "outputs": [],
      "stateMutability": "pure",
      "type": "function"
    },
    {
      "inputs": [
        {
          "internalType": "address",
          "name": "issuer",
          "type": "address"
        }
      ],
      "name": "authorizeIssuer",
      "outputs": [],
      "stateMutability": "nonpayable",
      "type": "function"
    },
    {
      "inputs": [
        {
          "internalType": "address",
          "name": "",
          "type": "address"
        }
      ],
      "name": "authorizedIssuers",
      "outputs": [
        {
          "internalType": "bool",
          "name": "",
          "type": "bool"
        }
      ],
      "stateMutability": "view",
      "type": "function"
    },
    {
      "inputs": [
        {
          "internalType": "address",
          "name": "owner",
          "type": "address"
        }
      ],
      "name": "balanceOf",
      "outputs": [
        {
          "internalType": "uint256",
          "name": "",
          "type": "uint256"
        }
      ],
      "stateMutability": "view",
      "type": "function"
    },
    {
      "inputs": [
        {
          "internalType": "uint256",
          "name": "tokenId",
          "type": "uint256"
        }
      ],
      "name": "getApproved",
      "outputs": [
        {
          "internalType": "address",
          "name": "",
          "type": "address"
        }
      ],
      "stateMutability": "view",
      "type": "function"
    },
    {
      "inputs": [
        {
          "internalType": "uint256",
          "name": "tokenId",
          "type": "uint256"
        }
      ],
      "name": "getSkillBadge",
      "outputs": [
        {
          "components": [
            {
              "internalType": "string",
              "name": "skillName",
              "type": "string"
            },
            {
              "internalType": "string",
              "name": "level",
              "type": "string"
            },
            {
              "internalType": "uint256",
              "name": "score",
              "type": "uint256"
            },
            {
              "internalType": "uint256",
              "name": "issuedAt",
              "type": "uint256"
            },
            {
              "internalType": "address",
              "name": "issuer",
              "type": "address"
            },
            {
              "internalType": "string",
              "name": "assessmentType",
              "type": "string"
            }
          ],
          "internalType": "struct SoulboundSkillToken.SkillBadge",
          "name": "",
          "type": "tuple"
        }
      ],
      "stateMutability": "view",
      "type": "function"
    },
    {
      "inputs": [
        {
          "internalType": "address",
          "name": "user",
          "type": "address"
        }
      ],
      "name": "getUserTokens",
      "outputs": [
        {
          "internalType": "uint256[]",
          "name": "",
          "type": "uint256[]"
        }
      ],
      "stateMutability": "view",
      "type": "function"
    },
    {
      "inputs": [
        {
          "internalType": "address",
          "name": "owner",
          "type": "address"
        },
        {
          "internalType": "address",
          "name": "operator",
          "type": "address"
        }
      ],
      "name": "isApprovedForAll",
      "outputs": [
        {
          "internalType": "bool",
          "name": "",
          "type": "bool"
        }
      ],
      "stateMutability": "view",
      "type": "function"
    },
    {
      "inputs": [
        {
          "internalType": "address",
          "name": "issuer",
          "type": "address"
        }
      ],
      "name": "isAuthorizedIssuer",
      "outputs": [
        {
          "internalType": "bool",
          "name": "",
          "type": "bool"
        }
      ],
      "stateMutability": "view",
      "type": "function"
    },
    {
      "inputs": [
        {
          "internalType": "address",
          "name": "recipient",
          "type": "address"
        },
        {
          "internalType": "string",
          "name": "skillName",
          "type": "string"
        },
        {
          "internalType": "string",
          "name": "level",
          "type": "string"
        },
        {
          "internalType": "uint256",
          "name": "score",
          "type": "uint256"
        },
        {
          "internalType": "string",
          "name": "badgeTokenURI",
          "type": "string"
        },
        {
          "internalType": "string",
          "name": "assessmentType",
          "type": "string"
        }
      ],
      "name": "issueBadge",
      "outputs": [
        {
          "internalType": "uint256",
          "name": "",
          "type": "uint256"
        }
      ],
      "stateMutability": "nonpayable",
      "type": "function"
    },
    {
      "inputs": [],
      "name": "name",
      "outputs": [
        {
          "internalType": "string",
          "name": "",
          "type": "string"
        }
      ],
      "stateMutability": "view",
      "type": "function"
    },
    {
      "inputs": [],
      "name": "owner",
      "outputs": [
        {
          "internalType": "address",
          "name": "",
          "type": "address"
        }
      ],
      "stateMutability": "view",
      "type": "function"
    },
    {
      "inputs": [
        {
          "internalType": "uint256",
          "name": "tokenId",
          "type": "uint256"
        }
      ],
      "name": "ownerOf",
      "outputs": [
        {
          "internalType": "address",
          "name": "",
          "type": "address"
        }
      ],
      "stateMutability": "view",
      "type": "function"
    },
    {
      "inputs": [],
      "name": "renounceOwnership",
      "outputs": [],
      "stateMutability": "nonpayable",
      "type": "function"
    },
    {
      "inputs": [
        {
          "internalType": "address",
          "name": "issuer",
          "type": "address"
        }
      ],
      "name": "revokeIssuer",
      "outputs": [],
      "stateMutability": "nonpayable",
      "type": "function"
    },
    {
      "inputs": [
        {
          "internalType": "address",
          "name": "from",
          "type": "address"
        },
        {
          "internalType": "address",
          "name": "to",
          "type": "address"
        },
        {
          "internalType": "uint256",
          "name": "tokenId",
          "type": "uint256"
        }
      ],
      "name": "safeTransferFrom",
      "outputs": [],
      "stateMutability": "pure",
      "type": "function"
    },
    {
      "inputs": [
        {
          "internalType": "address",
          "name": "from",
          "type": "address"
        },
        {
          "internalType": "address",
          "name": "to",
          "type": "address"
        },
        {
          "internalType": "uint256",
          "name": "tokenId",
          "type": "uint256"
        },
        {
          "internalType": "bytes",
          "name": "data",
          "type": "bytes"
        }
      ],
      "name": "safeTransferFrom",
      "outputs": [],
      "stateMutability": "pure",
      "type": "function"
    },
    {
      "inputs": [
        {
          "internalType": "address",
          "name": "operator",
          "type": "address"
        },
        {
          "internalType": "bool",
          "name": "approved",
          "type": "bool"
        }
      ],
      "name": "setApprovalForAll",
      "outputs": [],
      "stateMutability": "pure",
      "type": "function"
    },
    {
      "inputs": [
        {
          "internalType": "uint256",
          "name": "",
          "type": "uint256"
        }
      ],
      "name": "skillBadges",
      "outputs": [
        {
          "internalType": "string",
          "name": "skillName",
          "type": "string"
        },
        {
          "internalType": "string",
          "name": "level",
          "type": "string"
        },
        {
          "internalType": "uint256",
          "name": "score",
          "type": "uint256"
        },
        {
          "internalType": "uint256",
          "name": "issuedAt",
          "type": "uint256"
        },
        {
          "internalType": "address",
          "name": "issuer",
          "type": "address"
        },
        {
          "internalType": "string",
          "name": "assessmentType",
          "type": "string"
        }
      ],
      "stateMutability": "view",
      "type": "function"
    },
    {
      "inputs": [
        {
          "internalType": "bytes4",
          "name": "interfaceId",
          "type": "bytes4"
        }
      ],
      "name": "supportsInterface",
      "outputs": [
        {
          "internalType": "bool",
          "name": "",
          "type": "bool"
        }
      ],
      "stateMutability": "view",
      "type": "function"
    },
    {
      "inputs": [],
      "name": "symbol",
      "outputs": [
        {
          "internalType": "string",
          "name": "",
          "type": "string"
        }
      ],
      "stateMutability": "view",
      "type": "function"
    },
    {
      "inputs": [
        {
          "internalType": "uint256",
          "name": "tokenId",
          "type": "uint256"
        }
      ],
      "name": "tokenURI",
      "outputs": [
        {
          "internalType": "string",
          "name": "",
          "type": "string"
        }
      ],
      "stateMutability": "view",
      "type": "function"
    },
    {
      "inputs": [],
      "name": "totalSupply",
      "outputs": [
        {
          "internalType": "uint256",
          "name": "",
          "type": "uint256"
        }
      ],
      "stateMutability": "view",
      "type": "function"
    },
    {
      "inputs": [
        {
          "internalType": "address",
          "name": "from",
          "type": "address"
        },
        {
          "internalType": "address",
          "name": "to",
          "type": "address"
        },
        {
          "internalType": "uint256",
          "name": "tokenId",
          "type": "uint256"
        }
      ],
      "name": "transferFrom",
      "outputs": [],
      "stateMutability": "pure",
      "type": "function"
    },
    {
      "inputs": [
        {
          "internalType": "address",
          "name": "newOwner",
          "type": "address"
        }
      ],
      "name": "transferOwnership",
      "outputs": [],
      "stateMutability": "nonpayable",
      "type": "function"
    },
    {
      "inputs": [
        {
          "internalType": "address",
          "name": "",
          "type": "address"
        },
        {
          "internalType": "uint256",
          "name": "",
          "type": "uint256"
        }
      ],
      "name": "userTokens",
      "outputs": [
        {
          "internalType": "uint256",
          "name": "",
          "type": "uint256"
        }
      ],
      "stateMutability": "view",
      "type": "function"
    }
  ],
  "bytecode": "0x60806040523480156200001157600080fd5b5060405162002357380380620023578339810160408190526200003491620001ad565b81816000620000448382620002a6565b506001620000538282620002a6565b505050620000706200006a6200009260201b60201c565b62000096565b5050336000908152600b60205260409020805460ff1916600117905562000372565b3390565b600780546001600160a01b038381166001600160a01b0319831681179093556040519116919082907f8be0079c531659141344cd1fd0a4f28419497f9722a3daafe3b4186f6b6457e090600090a35050565b634e487b7160e01b600052604160045260246000fd5b600082601f8301126200011057600080fd5b81516001600160401b03808211156200012d576200012d620000e8565b604051601f8301601f19908116603f01168101908282118183101715620001585762000158620000e8565b816040528381526020925086838588010111156200017557600080fd5b600091505b838210156200019957858201830151818301840152908201906200017a565b600093810190920192909252949350505050565b60008060408385031215620001c157600080fd5b82516001600160401b0380821115620001d957600080fd5b620001e786838701620000fe565b93506020850151915080821115620001fe57600080fd5b506200020d85828601620000fe565b9150509250929050565b600181811c908216806200022c57607f821691505b6020821081036200024d57634e487b7160e01b600052602260045260246000fd5b50919050565b601f821115620002a157600081815260208120601f850160051c810160208610156200027c5750805b601f850160051c820191505b818110156200029d5782815560010162000288565b5050505b505050565b81516001600160401b03811115620002c257620002c2620000e8565b620002da81620002d3845462000217565b8462000253565b602080601f831160018114620003125760008415620002f95750858301515b600019600386901b1c1916600185901b1785556200029d565b600085815260208120601f198616915b82811015620003435788860151825594840194600190910190840162000322565b5085821015620003625787850151600019600388901b60f8161c191681555b5050505050600190811b01905550565b611fd580620003826000396000f3fe608060405234801561001057600080fd5b506004361061018d5760003560e01c8063715018a6116100de578063c87b56dd11610097578063f63c2ea611610071578063f63c2ea614610376578063f731fa0f14610389578063f9f411d8146103ac578063feb24e89146103bf57600080fd5b8063c87b56dd14610314578063e985e9c514610327578063f2fde38b1461036357600080fd5b8063715018a6146102b75780638da5cb5b146102bf57806395d89b41146102d0578063a22cb465146102d8578063b88d4fde146102e6578063c76c4c53146102f457600080fd5b806323b872dd1161014b578063436693d511610125578063436693d51461025e578063519dc8d2146102715780636352211e1461029157806370a08231146102a457600080fd5b806323b872dd1461023857806331ba19661461024b57806342842e0e1461023857600080fd5b80626296791461019257806301ffc9a7146101a757806306fdde03146101cf578063081812fc146101e4578063095ea7b31461020f57806318160ddd14610222575b600080fd5b6101a56101a0366004611845565b6103e4565b005b6101ba6101b5366004611876565b610435565b60405190151581526020015b60405180910390f35b6101d7610446565b6040516101c691906118e3565b6101f76101f23660046118f6565b6104d8565b6040516001600160a01b0390911681526020016101c6565b6101a561021d36600461190f565b6104ff565b61022a610565565b6040519081526020016101c6565b6101a5610246366004611939565b610575565b6101ba610259366004611845565b61058d565b6101a561026c366004611845565b6105c4565b61028461027f366004611845565b61066e565b6040516101c69190611975565b6101f761029f3660046118f6565b6106da565b61022a6102b2366004611845565b61073a565b6101a56107c0565b6007546001600160a01b03166101f7565b6101d76107d4565b6101a561021d3660046119b9565b6101a5610246366004611a81565b6103076103023660046118f6565b6107e3565b6040516101c69190611afd565b6101d76103223660046118f6565b610a80565b6101ba610335366004611b84565b6001600160a01b03918216600090815260056020908152604080832093909416825291909152205460ff1690565b6101a5610371366004611845565b610a8b565b61022a610384366004611bd7565b610b04565b6101ba610397366004611845565b600b6020526000908152604090205460ff1681565b61022a6103ba36600461190f565b610dc6565b6103d26103cd3660046118f6565b610df7565b6040516101c696959493929190611c9d565b6103ec610fd2565b6001600160a01b0381166000818152600b6020526040808220805460ff19169055517f95a4c2ae425bb769549aa1a911911ff57c17ae811ae8c8962d0b9746fcb153979190a250565b60006104408261102c565b92915050565b60606000805461045590611d00565b80601f016020809104026020016040519081016040528092919081815260200182805461048190611d00565b80156104ce5780601f106104a3576101008083540402835291602001916104ce565b820191906000526020600020905b8154815290600101906020018083116104b157829003601f168201915b5050505050905090565b60006104e382611051565b506000908152600460205260409020546001600160a01b031690565b60405162461bcd60e51b815260206004820152603060248201527f536f756c626f756e6420746f6b656e732063616e6e6f7420626520617070726f60448201526f3b32b2103337b9103a3930b739b332b960811b60648201526084015b60405180910390fd5b600061057060085490565b905090565b60405162461bcd60e51b815260040161055c90611d3a565b6001600160a01b0381166000908152600b602052604081205460ff16806104405750506007546001600160a01b0391821691161490565b6105cc610fd2565b6001600160a01b0381166106225760405162461bcd60e51b815260206004820152601d60248201527f43616e6e6f7420617574686f72697a65207a65726f2061646472657373000000604482015260640161055c565b6001600160a01b0381166000818152600b6020526040808220805460ff19166001179055517f8b4006ca14f23d4e7aa8d120d1ab7c3761d650eefac1a5d6732dbea94b54ea249190a250565b6001600160a01b0381166000908152600a60209081526040918290208054835181840281018401909452808452606093928301828280156106ce57602002820191906000526020600020905b8154815260200190600101908083116106ba575b50505050509050919050565b6000818152600260205260408120546001600160a01b0316806104405760405162461bcd60e51b8152602060048201526018602482015277115490cdcc8c4e881a5b9d985b1a59081d1bdad95b88125160421b604482015260640161055c565b60006001600160a01b0382166107a45760405162461bcd60e51b815260206004820152602960248201527f4552433732313a2061646472657373207a65726f206973206e6f7420612076616044820152683634b21037bbb732b960b91b606482015260840161055c565b506001600160a01b031660009081526003602052604090205490565b6107c8610fd2565b6107d260006110b0565b565b60606001805461045590611d00565b6108256040518060c001604052806060815260200160608152602001600081526020016000815260200160006001600160a01b03168152602001606081525090565b6000828152600260205260409020546001600160a01b03166108805760405162461bcd60e51b8152602060048201526014602482015273151bdad95b88191bd95cc81b9bdd08195e1a5cdd60621b604482015260640161055c565b60008281526009602052604090819020815160c081019092528054829082906108a890611d00565b80601f01602080910402602001604051908101604052809291908181526020018280546108d490611d00565b80156109215780601f106108f657610100808354040283529160200191610921565b820191906000526020600020905b81548152906001019060200180831161090457829003601f168201915b5050505050815260200160018201805461093a90611d00565b80601f016020809104026020016040519081016040528092919081815260200182805461096690611d00565b80156109b35780601f10610988576101008083540402835291602001916109b3565b820191906000526020600020905b81548152906001019060200180831161099657829003601f168201915b5050509183525050600282015460208201526003820154604082015260048201546001600160a01b031660608201526005820180546080909201916109f790611d00565b80601f0160208091040260200160405190810160405280929190818152602001828054610a2390611d00565b8015610a705780601f10610a4557610100808354040283529160200191610a70565b820191906000526020600020905b815481529060010190602001808311610a5357829003601f168201915b5050505050815250509050919050565b606061044082611102565b610a93610fd2565b6001600160a01b038116610af85760405162461bcd60e51b815260206004820152602660248201527f4f776e61626c653a206e6577206f776e657220697320746865207a65726f206160448201526564647265737360d01b606482015260840161055c565b610b01816110b0565b50565b336000908152600b602052604081205460ff1680610b2c57506007546001600160a01b031633145b610b785760405162461bcd60e51b815260206004820152601e60248201527f4e6f7420617574686f72697a656420746f206973737565206261646765730000604482015260640161055c565b6001600160a01b038716610bce5760405162461bcd60e51b815260206004820152601c60248201527f43616e6e6f7420697373756520746f207a65726f206164647265737300000000604482015260640161055c565b6000865111610c1f5760405162461bcd60e51b815260206004820152601a60248201527f536b696c6c206e616d652063616e6e6f7420626520656d707479000000000000604482015260640161055c565b6064841115610c705760405162461bcd60e51b815260206004820152601760248201527f53636f72652063616e6e6f742065786365656420313030000000000000000000604482015260640161055c565b6000610c7b60085490565b9050610c8b600880546001019055565b610c958882611212565b610c9f8185611230565b6040805160c081018252888152602080820189905281830188905242606083015233608083015260a08201869052600084815260099091529190912081518190610ce99082611dce565b5060208201516001820190610cfe9082611dce565b50604082015160028201556060820151600382015560808201516004820180546001600160a01b0319166001600160a01b0390921691909117905560a08201516005820190610d4d9082611dce565b5050506001600160a01b0388166000818152600a6020908152604080832080546001810182559084529190922001839055518291907f3ff7a09cdfb29a85a1e640a02fb9818a9f06335a01ac062553c13228c620273490610db3908b908b908b90611e8e565b60405180910390a3979650505050505050565b600a6020528160005260406000208181548110610de257600080fd5b90600052602060002001600091509150505481565b600960205260009081526040902080548190610e1290611d00565b80601f0160208091040260200160405190810160405280929190818152602001828054610e3e90611d00565b8015610e8b5780601f10610e6057610100808354040283529160200191610e8b565b820191906000526020600020905b815481529060010190602001808311610e6e57829003601f168201915b505050505090806001018054610ea090611d00565b80601f0160208091040260200160405190810160405280929190818152602001828054610ecc90611d00565b8015610f195780601f10610eee57610100808354040283529160200191610f19565b820191906000526020600020905b815481529060010190602001808311610efc57829003601f168201915b505050600284015460038501546004860154600587018054969793969295506001600160a01b03909116935090610f4f90611d00565b80601f0160208091040260200160405190810160405280929190818152602001828054610f7b90611d00565b8015610fc85780601f10610f9d57610100808354040283529160200191610fc8565b820191906000526020600020905b815481529060010190602001808311610fab57829003601f168201915b5050505050905086565b6007546001600160a01b031633146107d25760405162461bcd60e51b815260206004820181905260248201527f4f776e61626c653a2063616c6c6572206973206e6f7420746865206f776e6572604482015260640161055c565b60006001600160e01b03198216632483248360e11b14806104405750610440826112fb565b6000818152600260205260409020546001600160a01b0316610b015760405162461bcd60e51b8152602060048201526018602482015277115490cdcc8c4e881a5b9d985b1a59081d1bdad95b88125160421b604482015260640161055c565b600780546001600160a01b038381166001600160a01b0319831681179093556040519116919082907f8be0079c531659141344cd1fd0a4f28419497f9722a3daafe3b4186f6b6457e090600090a35050565b606061110d82611051565b6000828152600660205260408120805461112690611d00565b80601f016020809104026020016040519081016040528092919081815260200182805461115290611d00565b801561119f5780601f106111745761010080835404028352916020019161119f565b820191906000526020600020905b81548152906001019060200180831161118257829003601f168201915b5050505050905060006111bd60408051602081019091526000815290565b905080516000036111cf575092915050565b8151156112015780826040516020016111e9929190611ec4565b60405160208183030381529060405292505050919050565b61120a8461134b565b949350505050565b61122c8282604051806020016040528060008152506113bf565b5050565b6000828152600260205260409020546001600160a01b03166112ab5760405162461bcd60e51b815260206004820152602e60248201527f45524337323155524953746f726167653a2055524920736574206f66206e6f6e60448201526d32bc34b9ba32b73a103a37b5b2b760911b606482015260840161055c565b60008281526006602052604090206112c38282611dce565b506040518281527ff8e1a15aba9398e019f0b49df1a4fde98ee17ae345cb5f6b5e2c27f5033e8ce79060200160405180910390a15050565b60006001600160e01b031982166380ac58cd60e01b148061132c57506001600160e01b03198216635b5e139f60e01b145b8061044057506301ffc9a760e01b6001600160e01b0319831614610440565b606061135682611051565b600061136d60408051602081019091526000815290565b9050600081511161138d57604051806020016040528060008152506113b8565b80611397846113f7565b6040516020016113a8929190611ec4565b6040516020818303038152906040525b9392505050565b6113c9838361148a565b6113d66000848484611623565b6113f25760405162461bcd60e51b815260040161055c90611ef3565b505050565b6060600061140483611724565b600101905060008167ffffffffffffffff811115611424576114246119f5565b6040519080825280601f01601f19166020018201604052801561144e576020820181803683370190505b5090508181016020015b600019016f181899199a1a9b1b9c1cb0b131b232b360811b600a86061a8153600a850494508461145857509392505050565b6001600160a01b0382166114e05760405162461bcd60e51b815260206004820181905260248201527f4552433732313a206d696e7420746f20746865207a65726f2061646472657373604482015260640161055c565b6000818152600260205260409020546001600160a01b0316156115455760405162461bcd60e51b815260206004820152601c60248201527f4552433732313a20746f6b656e20616c7265616479206d696e74656400000000604482015260640161055c565b6115536000838360016117fc565b6000818152600260205260409020546001600160a01b0316156115b85760405162461bcd60e51b815260206004820152601c60248201527f4552433732313a20746f6b656e20616c7265616479206d696e74656400000000604482015260640161055c565b6001600160a01b038216600081815260036020908152604080832080546001019055848352600290915280822080546001600160a01b0319168417905551839291907fddf252ad1be2c89b69c2b068fc378daa952ba7f163c4a11628f55a4df523b3ef908290a45050565b60006001600160a01b0384163b1561171957604051630a85bd0160e11b81526001600160a01b0385169063150b7a0290611667903390899088908890600401611f45565b6020604051808303816000875af19250505080156116a2575060408051601f3d908101601f1916820190925261169f91810190611f82565b60015b6116ff573d8080156116d0576040519150601f19603f3d011682016040523d82523d6000602084013e6116d5565b606091505b5080516000036116f75760405162461bcd60e51b815260040161055c90611ef3565b805181602001fd5b6001600160e01b031916630a85bd0160e11b14905061120a565b506001949350505050565b60008072184f03e93ff9f4daa797ed6e38ed64bf6a1f0160401b83106117635772184f03e93ff9f4daa797ed6e38ed64bf6a1f0160401b830492506040015b6d04ee2d6d415b85acef8100000000831061178f576d04ee2d6d415b85acef8100000000830492506020015b662386f26fc1000083106117ad57662386f26fc10000830492506010015b6305f5e10083106117c5576305f5e100830492506008015b61271083106117d957612710830492506004015b606483106117eb576064830492506002015b600a83106104405760010192915050565b6001600160a01b038416156118235760405162461bcd60e51b815260040161055c90611d3a565b50505050565b80356001600160a01b038116811461184057600080fd5b919050565b60006020828403121561185757600080fd5b6113b882611829565b6001600160e01b031981168114610b0157600080fd5b60006020828403121561188857600080fd5b81356113b881611860565b60005b838110156118ae578181015183820152602001611896565b50506000910152565b600081518084526118cf816020860160208601611893565b601f01601f19169290920160200192915050565b6020815260006113b860208301846118b7565b60006020828403121561190857600080fd5b5035919050565b6000806040838503121561192257600080fd5b61192b83611829565b946020939093013593505050565b60008060006060848603121561194e57600080fd5b61195784611829565b925061196560208501611829565b9150604084013590509250925092565b6020808252825182820181905260009190848201906040850190845b818110156119ad57835183529284019291840191600101611991565b50909695505050505050565b600080604083850312156119cc57600080fd5b6119d583611829565b9150602083013580151581146119ea57600080fd5b809150509250929050565b634e487b7160e01b600052604160045260246000fd5b600067ffffffffffffffff80841115611a2657611a266119f5565b604051601f8501601f19908116603f01168101908282118183101715611a4e57611a4e6119f5565b81604052809350858152868686011115611a6757600080fd5b858560208301376000602087830101525050509392505050565b60008060008060808587031215611a9757600080fd5b611aa085611829565b9350611aae60208601611829565b925060408501359150606085013567ffffffffffffffff811115611ad157600080fd5b8501601f81018713611ae257600080fd5b611af187823560208401611a0b565b91505092959194509250565b602081526000825160c06020840152611b1960e08401826118b7565b90506020840151601f1980858403016040860152611b3783836118b7565b9250604086015160608601526060860151608086015260018060a01b0360808701511660a086015260a08601519150808584030160c086015250611b7b82826118b7565b95945050505050565b60008060408385031215611b9757600080fd5b611ba083611829565b9150611bae60208401611829565b90509250929050565b600082601f830112611bc857600080fd5b6113b883833560208501611a0b565b60008060008060008060c08789031215611bf057600080fd5b611bf987611829565b9550602087013567ffffffffffffffff80821115611c1657600080fd5b611c228a838b01611bb7565b96506040890135915080821115611c3857600080fd5b611c448a838b01611bb7565b9550606089013594506080890135915080821115611c6157600080fd5b611c6d8a838b01611bb7565b935060a0890135915080821115611c8357600080fd5b50611c9089828a01611bb7565b9150509295509295509295565b60c081526000611cb060c08301896118b7565b8281036020840152611cc281896118b7565b60408401889052606084018790526001600160a01b038616608085015283810360a08501529050611cf381856118b7565b9998505050505050505050565b600181811c90821680611d1457607f821691505b602082108103611d3457634e487b7160e01b600052602260045260246000fd5b50919050565b60208082526026908201527f536f756c626f756e6420746f6b656e732063616e6e6f74206265207472616e7360408201526519995c9c995960d21b606082015260800190565b601f8211156113f257600081815260208120601f850160051c81016020861015611da75750805b601f850160051c820191505b81811015611dc657828155600101611db3565b505050505050565b815167ffffffffffffffff811115611de857611de86119f5565b611dfc81611df68454611d00565b84611d80565b602080601f831160018114611e315760008415611e195750858301515b600019600386901b1c1916600185901b178555611dc6565b600085815260208120601f198616915b82811015611e6057888601518255948401946001909101908401611e41565b5085821015611e7e5787850151600019600388901b60f8161c191681555b5050505050600190811b01905550565b606081526000611ea160608301866118b7565b8281036020840152611eb381866118b7565b915050826040830152949350505050565b60008351611ed6818460208801611893565b835190830190611eea818360208801611893565b01949350505050565b60208082526032908201527f4552433732313a207472616e7366657220746f206e6f6e20455243373231526560408201527131b2b4bb32b91034b6b83632b6b2b73a32b960711b606082015260800190565b6001600160a01b0385811682528416602082015260408101839052608060608201819052600090611f78908301846118b7565b9695505050505050565b600060208284031215611f9457600080fd5b81516113b88161186056fea2646970667358221220cbc22c5a935f61c6c240f45ecb565f173312bf9c124bbdb4256b66fd79bd848364736f6c63430008130033",
  "linkReferences": {},
  "deployedLinkReferences": {}
}